S0120000526F62792D66696E616C2E737265633F
S11300000C9443000C9460000C9460000C94600009
S11300100C9460000C9460000C9460000C94F30643
S11300200C9460000C9460000C9460000C946000CC
S11300300C9460000C9460000C9460000C946000BC
S11300400C9460000C9460000C9460000C946000AC
S11300500C9460000C9460000C9460000C9460009C
S11300600C9460000C946000460551055C0567051E
S113007072057D05880593059E056364696E6F703E
S1130080737578585B0011241FBECFEFD8E0DEBF34
S1130090CDBF15E0A0E0B1E0ECE7F1E202C00590CD
S11300A00D92A234B107D9F727E0A2E4B5E001C06C
S11300B01D92A231B207E1F70E94A9050C94BC106D
S11300C00C9400000F931F93CF93DF938C01CCE823
S11300D0D6E0FE0101900020E9F73197AF014C58BA
S11300E0564060E070E0CE010E94B009DF93CF93E8
S11300F08AE791E09F938F930E94500AB801CE0142
S11301000E94CB090F900F900F900F90892B19F438
S1130110C8010E946200DF91CF911F910F91089551
S1130120EF92FF920F931F93CF93DF937C018B0188
S11301308091420590914305892B01F5CCE6D5E0E9
S1130140FE0101900020E9F73197AF014C5655406C
S113015060E070E0CE010E94B009DE010D90002045
S1130160E9F7119784E4EEE7F1E001900D928A95A6
S1130170E1F768E271E0CE010E94B709CCE6D5E070
S1130180FE0101900020E9F7319786E290E0918327
S11301908083B701CE010E94B70909900020E9F7D6
S11301A021978DE390E099838883ECE8F6E0019051
S11301B00020E9F73197AF014C58564060E070E0F9
S11301C08CE896E00E94B0094AE06CE876E0C80149
S11301D00E94E5096CE876E08CE695E00E94B70998
S11301E08091420590914305019690934305809335
S11301F04205DF91CF911F910F91FF90EF900895E9
S1130200CF92DF92EF92FF920F931F93CF93DF93DE
S11302106C017B0100914205109143050115110504
S113022001F5CCE6D5E0FE0101900020E9F7319715
S1130230AF014C56554060E070E0CE010E94B00919
S1130240DE010D900020E9F7119784E4EEE7F1E078
S113025001900D928A95E1F768E271E0CE010E9467
S1130260B709CCE6D5E0FE0101900020E9F731970B
S113027086E290E091838083B601CE010E94B709A3
S113028009900020E9F721978DE390E09983888312
S1130290B7018CE695E00E94B7090F5F1F4F1093DA
S11302A0430500934205DF91CF911F910F91FF9079
S11302B0EF90DF90CF900895CF93DF93EC010E94ED
S11302C0620080918C068B3749F0EDE8F6E080E01F
S11302D090E0019621912B37E1F702C080E090E095
S11302E0FE0101900020E9F7EC1BFD0B3496EF01B1
S11302F0C80FD91FECE6F6E001900020E9F731972A
S1130300AF014C56564060E070E08CE696E00E94E7
S1130310B009FE01E457F94F9081923249F0ACE6FE
S1130320B6E0FE01E357F94F9D9391919232E1F7C4
S1130330DF91CF9108950F931F93CF93DF932FEF06
S113034031EE84E0215030408040E1F700C00000ED
S113035082EC91E00E94200ACCE8D6E0FE010190F4
S11303600020E9F73197AF014C58564060E070E047
S1130370CE010E94B009DF93CF930AE711E01F93E7
S11303800F930E94500AFE0101900020E9F7319773
S1130390AF014C58564060E070E0CE010E94B009B5
S11303A0DF93CF931F930F930E94500A66EC71E082
S11303B0CE010E94CB092DB73EB7285F3F4F0FB641
S11303C0F8943EBF0FBE2DBF892B11F40E949B01F0
S11303D0DF91CF911F910F910895CF93DF930E94E6
S11303E09B01809105018F93809104018F9389EC87
S11303F091E09F938F930E940A0A86EC91E00E94F9
S11304006200CCE6D5E0FE0101900020E9F7CF01BF
S11304108B5495409F938F9387EF91E09F938F9395
S11304200E940A0A86EC91E00E946200DF93CF9357
S113043089E092E09F938F930E940A0A80E392E0FE
S11304400E94620087E392E00E94200A81E492E025
S11304500E94200A09900020E9F72197AE014C562A
S1130460554060E070E08CE695E00E94B00910927F
S11304704305109242058DB79EB70C960FB6F894BB
S11304809EBF0FBE8DBFDF91CF910895CF93DF93B1
S11304900E949B01CCE6D5E0FE0101900020E9F723
S11304A03197AF014C56554060E070E0CE010E9498
S11304B0B009DE010D900020E9F7119784E4EEE71E
S11304C0F1E001900D928A95E1F767E171E0CE01C8
S11304D00E94B709809105018F93809104018F9345
S11304E080E592E09F938F930E940A0A86EC91E044
S11304F00E946200FE0101900020E9F7CF018B54B5
S113050095409F938F938EE792E09F938F930E94E1
S11305100A0A86EC91E00E946200DF93CF9389E09F
S113052092E09F938F930E940A0A80E992E00E94CE
S11305305C018CE696E09F938F9385E992E09F930C
S11305408F930E940A0A8DB79EB740960FB6F8940F
S11305509EBF0FBE8DBFDF91CF9108950F931F9360
S1130560CF93DF93ECE4F5E001900020E9F73197B5
S1130570AF014C54554060E070E08CE495E00E947B
S1130580B009CCE8D6E0FE0101900020E9F73197EC
S1130590AF014C58564060E070E0CE010E94B009B3
S11305A081EA92E00E94200ADF93CF930AE711E0E8
S11305B01F930F930E94500AFE0101900020E9F757
S11305C03197AF014C58564060E070E0CE010E9474
S11305D0B009DF93CF931F930F930E94500A8DB7F6
S11305E09EB708960FB6F8949EBF0FBE8DBF20E04D
S11305F030E040E050E0F901E457F94F8081823265
S1130600D9F4B9016F5F7F4FFB01E457F94F808143
S1130610823289F0FA01E45BFA4FD901A257B94F4B
S11306209B0181932F5F3F4FAF014C5455408D91F7
S11306308232B9F701C09B012F5F3F4F213431054E
S1130640D4F286EC91E00E946200DF91CF911F9179
S11306500F9108958BEA92E00E94200A2FEF81EE19
S113066094E0215080409040E1F700C000000E94D7
S11306709B0189E391E09F938F9387E491E09F939B
S11306808F9383EB92E09F938F930E940A0A86ECE8
S113069091E00E9462000E94AE0288EC92E00E9407
S11306A0200A86EC91E00E94620085ED92E00E94AF
S11306B0200A86EC91E00E9462002FEF89E698E11F
S11306C0215080409040E1F700C000000F900F904F
S11306D00F900F900F900F900895EF92FF920F9349
S11306E01F93CF93DF937C01C0914205D0914305C2
S11306F0209761F50CE615E0F80101900020E9F778
S11307003197AF014C56554060E070E0C8010E943B
S1130710B009D8010D900020E9F711978AE4E2EEC0
S1130720F2E001900D928A95E1F766E071E0C8016C
S11307300E94B709D8010D900020E9F7119789E0CC
S1130740ECE2F3E001900D928A95E1F7B7018CE6B3
S113075095E00E94B7092196D0934305C0934205C2
S1130760DF91CF911F910F91FF90EF900895CF9358
S1130770DF930E949B01809105018F938091040176
S11307808F9380E592E09F938F930E940A0A86ECF0
S113079091E00E946200CCE6D5E0FE0101900020C9
S11307A0E9F7CF018B5495409F938F938EE792E0A6
S11307B09F938F930E940A0A86EC91E00E94620044
S11307C0DF93CF9389E092E09F938F930E940A0A6C
S11307D080E392E00E94620085E393E00E94200A95
S11307E080E493E00E94200A10924305109242058F
S11307F08DB79EB70C960FB6F8949EBF0FBE8DBFF3
S1130800DF91CF9108958FEF8AB984B98CE98093F1
S1130810B300E0EBF0E0808182608083E0E7F0E009
S1130820808182608083E1EBF0E080818760808357
S113083078940895E0E8F0E08081826A8083E1E8BA
S1130840F0E080818D6180838FEF90E0909387004A
S11308508093860084B5806A84BD84B5836084BD3A
S113086085B5856085BD0895CF92DF92EF92FF92A2
S1130870CF93DF939C0110928900109288004FEF70
S1130880429FC001439F900D112464E670E00E94D2
S11308902609EB0170938B0060938A0017BCB901A1
S11308A0330F880B990B0E942D0826E636E646E2A4
S11308B05FE30E94B9086B017C01BE01DD0F880B68
S11308C0990B0E942D089B01AC01C701B6010E943F
S11308D090070E94FC0768BDDF91CF91FF90EF90D5
S11308E0DF90CF900895CF92DF92EF92FF92CF9353
S11308F0DF939C0110928B0010928A004FEF429F6D
S1130900C001439F900D112464E670E00E94260903
S1130910EB01709389006093880018BCB901330F10
S1130920880B990B0E942D0826E636E646E25FE323
S11309300E94B9086B017C01BE01DD0F880B990B85
S11309400E942D089B01AC01C701B6010E949007CB
S11309500E94FC0767BDDF91CF91FF90EF90DF907D
S1130960CF900895CF92DF92EF92FF92CF93DF93CF
S1130970EC0117BC2FEF2C9FC0012D9F900D11246B
S113098064E670E00E942609072E000C880B990B80
S11309900E942D086B017C01BE01DD0F880B990BB1
S11309A00E942D0826E636E646E25FE30E94B90877
S11309B09B01AC01C701B6010E9490070E94FC078D
S11309C068BDDF91CF91FF90EF90DF90CF900895B5
S11309D010928900109288002FEFAC01249FC0016F
S11309E0259F900D112464E670E00E9426097093FF
S11309F08B0060938A00089517BC18BC109289007C
S1130A001092880010928B0010928A0008955A9ACE
S1130A102FEF81EE94E0215080409040E1F700C038
S1130A2000005A982FEF81EE94E0215080409040CE
S1130A30E1F700C000000895ECE8F6E00190002022
S1130A40E9F73197AF014C58564060E070E08CE80C
S1130A5096E00E94B0090E94A0096FE077E20E942C
S1130A6026094AE06CE876E00E94E5090E94A009A4
S1130A7069E070E00E942609FC013197E930F10534
S1130A8008F066C0EC5CFF4F0C943A098FE493E0E5
S1130A900E946D038CE896E00E946D030E94B703E8
S1130AA0089589E693E00E946D038CE896E00E9425
S1130AB06D030E94B703089581E993E00E946D03DA
S1130AC08CE896E00E946D030E94B703089589EBB9
S1130AD093E00E946D038CE896E00E946D030E94EF
S1130AE0B703089588E094E00E946D038CE896E0D3
S1130AF00E946D030E94B703089586E494E00E9467
S1130B006D038CE896E00E946D030E94B70308957C
S1130B1089E694E00E946D038CE896E00E946D03E0
S1130B200E94B70308958FE794E00E946D038CE858
S1130B3096E00E946D030E94B703089580EB94E051
S1130B400E946D038CE896E00E946D030E94B70337
S1130B5008950E9403040E941A040E947C070E94C4
S1130B602A030E941C05C2E3D0E00EE110E00E94BB
S1130B70460265ED74E08CE696E00E94C209892B7A
S1130B80F9F464E170E085EE94E00E9490006091D5
S1130B904805709149058BEE94E00E9490006091A5
S1130BA04A0570914B0589EF94E00E9490006CE631
S1130BB076E080E992E00E9400010E94ED01D7CF27
S1130BC061E075E08CE696E00E94C209892B09F089
S1130BD062C0CE010E9473042FEF83ED90E3215095
S1130BE080409040E1F700C000000E94FC04CE0168
S1130BF00E9434042FEF83ED90E321508040904015
S1130C00E1F700C000000E94FC04CE010E94B2047F
S1130C102FEF83ED90E3215080409040E1F700C036
S1130C2000000E94FC04CE010E94E8042FEF83ED33
S1130C3090E3215080409040E1F700C000000E9402
S1130C40FC0485E0ECE0F5E0ACE6B6E001900D9242
S1130C508A95E1F760E070E085EE94E00E949000F0
S1130C6060914805709149058BEE94E00E949000D4
S1130C7060914A0570914B0589EF94E00E949000C1
S1130C806CE676E080E992E00E9400010E94ED01AA
S1130C900E9407056CCF61E175E08CE696E00E9446
S1130CA0C209892B11F5CE010E94730464E170E03E
S1130CB085EE94E00E94900060914805709149058A
S1130CC08BEE94E00E94900060914A0570914B0570
S1130CD089EF94E00E9490006CE676E080E992E06F
S1130CE00E9400010E94ED0142CF6AE175E08CE6AA
S1130CF096E00E94C209892B11F5CE010E943404AA
S1130D0064E170E085EE94E00E94900060914805F3
S1130D10709149058BEE94E00E94900060914A0521
S1130D2070914B0589EF94E00E9490006CE676E0A8
S1130D3080E992E00E9400010E94ED0118CF62E276
S1130D4075E08CE696E00E94C209892B29F4CE0155
S1130D500A960E94B2040BCF67E275E08CE696E037
S1130D600E94C209892B29F4CE010A960E94E80444
S1130D70FECE6CE075E08CE696E00E94C209892BF9
S1130D8029F40E9407050E94FC04F1CE6DE275E08F
S1130D908CE696E00E94C209892B71F485E0ECE0B0
S1130DA0F5E0ACE6B6E001900D928A95E1F70E9479
S1130DB00705C02FD12FDBCE67E375E08CE696E004
S1130DC00E94C209892B09F0D2CE85E0ECE0F5E05F
S1130DD0ACE6B6E001900D928A95E1F70E94070512
S1130DE0C6E4D0E0C4CE1F920F920FB60F92112426
S1130DF02F933F934F935F936F937F938F939F931F
S1130E00AF93BF93EF93FF93809144059091450571
S1130E10A0914605B09147050196A11DB11D80938F
S1130E20440590934505A0934605B09347058091EA
S1130E30440590914505A0914605B0914705843637
S1130E409105A105B10551F510924405109245058F
S1130E50109246051092470580914A0590914B05E2
S1130E60019690934B0580934A056CE075E08CE6FF
S1130E7096E00E94C209892B41F461E075E08CE69A
S1130E8096E00E94C209892B49F48091480590910B
S1130E90490501969093490580934805809144053E
S1130EA090914505A0914605B09147050E94A5097A
S1130EB0FF91EF91BF91AF919F918F917F916F912E
S1130EC05F914F913F912F910F900FBE0F901F9004
S1130ED01895E0ECF0E0908195FFFDCF8093C6007B
S1130EE080E090E00895E0ECF0E080818823ECF766
S1130EF08091C60090E008951092C50087E6809323
S1130F00C40088E18093C100ECE0F7E08CE691E056
S1130F10938382838EE591E0918380830895505872
S1130F20BB27AA270E94A7070C947F080E94710878
S1130F3038F00E94780820F039F49F3F19F426F421
S1130F400C946E080EF4E095E7FB0C946808E92F06
S1130F500E94900858F3BA1762077307840795072D
S1130F6020F079F4A6F50C94B2080EF4E0950B2E5B
S1130F70BA2FA02D0B01B90190010C01CA01A001E7
S1130F801124FF27591B99F0593F50F4503E68F142
S1130F901A16F040A22F232F342F4427585FF3CF83
S1130FA0469537952795A795F0405395C9F77EF454
S1130FB01F16BA0B620B730B840BBAF09150A1F09D
S1130FC0FF0FBB1F661F771F881FC2F70EC0BA0F23
S1130FD0621F731F841F48F4879577956795B795AB
S1130FE0F7959E3F08F0B0CF9395880F08F09927A6
S1130FF0EE0F9795879508950E94980888F09F575B
S113100098F0B92F9927B751B0F0E1F0660F771F28
S1131010881F991F1AF0BA95C9F714C0B13091F01E
S11310200E94B208B1E008950C94B208672F782F9B
S11310308827B85F39F0B93FCCF3869577956795E3
S1131040B395D9F73EF490958095709561957F4F4F
S11310508F4F9F4F0895E89409C097FB3EF49095F5
S11310608095709561957F4F8F4F9F4F9923A9F07D
S1131070F92F96E9BB279395F6958795779567950C
S1131080B795F111F8CFFAF4BB0F11F460FF1BC050
S11310906F5F7F4F8F4F9F4F16C0882311F096E9E3
S11310A011C0772321F09EE8872F762F05C0662391
S11310B071F096E8862F70E060E02AF09A95660F4A
S11310C0771F881FDAF7880F9695879597F9089503
S11310D097F99F6780E870E060E008959FEF80ECE7
S11310E0089500240A94161617061806090608958A
S11310F000240A9412161306140605060895092EF0
S11311000394000C11F4882352F0BB0F40F4BF2B5E
S113111011F460FF04C06F5F7F4F8F4F9F4F08959E
S113112057FD9058440F551F59F05F3F71F0479594
S1131130880F97FB991F61F09F3F79F08795089579
S1131140121613061406551FF2CF4695F1DF08C098
S1131150161617061806991FF1CF869571056105B5
S113116008940895E894BB2766277727CB0197F95D
S113117008950E94CC080C947F080E94710838F0EE
S11311800E94780820F0952311F00C9468080C94C0
S11311906E0811240C94B3080E94900870F3959F74
S11311A0C1F3950F50E0551F629FF001729FBB275A
S11311B0F00DB11D639FAA27F00DB11DAA1F649FF6
S11311C06627B00DA11D661F829F2227B00DA11DA9
S11311D0621F739FB00DA11D621F839FA00D611D2F
S11311E0221F749F3327A00D611D231F849F600D50
S11311F0211D822F762F6A2F11249F5750409AF079
S1131200F1F088234AF0EE0FFF1FBB1F661F771F04
S1131210881F91505040A9F79E3F510580F00C94CF
S113122068080C94B3085F3FE4F3983ED4F38695C2
S113123077956795B795F795E7959F5FC1F7FE2B6F
S1131240880F911D9695879597F9089597FB072E1A
S113125016F4009407D077FD09D00E94400907FCDA
S113126005D03EF4909581959F4F089570956195B2
S11312707F4F0895EE0FFF1F0590F491E02D099420
S1131280AA1BBB1B51E107C0AA1FBB1FA617B707A8
S113129010F0A61BB70B881F991F5A95A9F78095C4
S11312A09095BC01CD0108958F929F92AF92BF9209
S11312B0CF92DF92EF92FF92CF93DF93EC0168819C
S11312C079818A819B81611571058105910521F4DC
S11312D064E279ED8BE597E02DE133EF41E050E0F6
S11312E00E94221049015A019B01AC01A7EAB1E412
S11312F00E9441106B017C01ACEEB4EFA501940196
S11313000E944F10DC01CB018C0D9D1DAE1DBF1D35
S1131310B7FF03C00197A109B04888839983AA83C2
S1131320BB839F77DF91CF91FF90EF90DF90CF90B9
S1131330BF90AF909F908F9008950E945409089594
S113134080E091E00E9454090895A0E0B0E0809309
S1131350000190930101A0930201B0930301089549
S1131360DC0101C06D9341505040E0F70895FB014A
S1131370DC010D900020E9F7119701900D920020F7
S1131380E1F70895FB01DC018D91019080190110B2
S1131390D9F3990B0895FB0151915523A9F0BF018D
S11313A0DC014D9145174111E1F759F4CD0101904C
S11313B0002049F04D9140154111C9F3FB01411141
S11313C0EFCF81E090E001970895BB274A3031F4D4
S11313D0992322F4BDE2909581959F4F0C94F109D5
S11313E0BB27FB015527AA27880F991FAA1FA417FB
S11313F010F0A41B83955051B9F7A05DAA3308F0EF
S1131400A95DA193009779F7B111B1931192CB0122
S11314100C941E0FA0E0B0E0E0E1FAE00C9464103C
S1131420AE014B5F5F4FFA0161917191AF01809101
S11314300E0790910F070E94660AE2E00C94801058
S11314400F931F93CF93DF93E0910E07F0910F0753
S1131450238121FF1BC08C01D0E0C0E0F801819101
S11314608F0160910E0770910F07DB011896ED91C3
S1131470FC911997882331F00995892B79F3DFEFD3
S1131480CFEFECCF8AE00995892B19F08FEF9FEF0E
S113149002C08D2F9C2FDF91CF911F910F91089542
S11314A0A0E0B0E0E6E5FAE00C946410AE014B5F16
S11314B05F4FFA0161917191AF0180910C07909196
S11314C00D070E94E30DE2E00C948010ABE0B0E065
S11314D0ECE6FAE00C9454106C017B018A01FC01E7
S11314E017821682838181FFCCC1CE0101963C0113
S11314F0F6019381F70193FD859193FF81917F011B
S1131500882309F4BAC1853239F493FD859193FF98
S113151081917F01853229F4B60190E00E946C0F1D
S1131520E7CF912C212C312CFFE1F315D8F08B322D
S113153079F038F4803279F08332A1F4232D2061DC
S11315401DC08D3261F0803369F4232D216016C0F3
S1131550832D8260382EE32DE4603E2E2AC0F32DC5
S1131560F8601DC037FC2DC020ED280F2A3040F054
S11315708E32B9F436FC81C1232D2064322E19C079
S113158036FE06C08AE0989E200D1124922E11C0CA
S1131590EAE02E9E200D1124222EF32DF0623F2E20
S11315A008C08C3621F4832D8068382E02C088361A
S11315B041F4F70193FD859193FF81917F0181119E
S11315C0B3CF982F9F7D9554933028F40C5F1F4F11
S11315D09FE399830DC0833631F0833771F08335EF
S11315E009F059C021C0F801808189830E5F1F4F23
S11315F088248394912C530113C02801F2E04F0EE8
S1131600511CF801A080B18036FE03C0692D70E042
S113161002C06FEF7FEFC5010E94130F4C018201DE
S1131620F32DFF773F2E16C0280122E0420E511CF5
S1131630F801A080B18036FE03C0692D70E002C0BD
S11316406FEF7FEFC5010E94080F4C01F32DF06886
S11316503F2E820133FC1BC0822D90E08816990630
S1131660B0F4B60180E290E00E946C0F2A94F4CFAB
S1131670F50137FC859137FE81915F01B60190E059
S11316800E946C0F21102A9421E0821A910881147F
S1131690910471F7E8C0843611F0893641F5F801F8
S11316A037FE07C060817181828193810C5F1F4F77
S11316B008C060817181072E000C880B990B0E5FA6
S11316C01F4FF32DFF763F2E97FF09C0909580950D
S11316D0709561957F4F8F4F9F4FF0683F2E2AE0A2
S11316E030E0A3010E94C10F882E861845C08537BB
S11316F031F4232D2F7EB22E2AE030E025C0932D25
S1131700997FB92E8F36C1F018F4883579F0B5C0B9
S1131710803719F0883721F0B0C0E92FE061BE2E80
S1131720B4FE0DC0FB2DF460BF2E09C034FE0AC008
S1131730292F2660B22E06C028E030E005C020E143
S113174030E002C020E132E0F801B7FE07C060815A
S11317507181828193810C5F1F4F06C0608171810A
S113176080E090E00E5F1F4FA3010E94C10F882EFE
S11317708618FB2DFF773F2E36FE0DC0232D2E7FBE
S1131780A22E891458F434FE0BC032FC09C0832DF8
S11317908E7EA82E05C0B82CA32C03C0B82C01C083
S11317A0B92CA4FE0FC0FE01E80DF11D8081803329
S11317B021F49A2D997EA92E09C0A2FE06C0B394E5
S11317C0B39404C08A2D867809F0B394A3FC11C0A5
S11317D0A0FE06C0B21488F4280C922C9B180EC0EC
S11317E0B21460F4B60180E290E00E946C0FB394EE
S11317F0F7CFB21418F42B1802C0982C212CA4FE95
S113180010C0B60180E390E00E946C0FA2FE17C0E6
S1131810A1FC03C088E790E002C088E590E0B6012F
S11318200CC08A2D867859F0A1FE02C08BE201C05B
S113183080E2A7FC8DE2B60190E00E946C0F89144F
S113184038F4B60180E390E00E946C0F9A94F7CFCD
S11318508A94F301E80DF11D8081B60190E00E94A5
S11318606C0F8110F5CF222009F442CEB60180E23C
S113187090E00E946C0F2A94F6CFF601868197813E
S113188002C08FEF9FEF2B96E2E10C94701020FDC5
S113189009C0FC0123FD05C022FF02C073836283DB
S11318A051834083089544FD17C046FD17C0AB0122
S11318B0BC01DA01FB01AA0FBB1FEE1FFF1F10942E
S11318C0D1F74A0F5B1F6E1F7F1FCB01BA01660F52
S11318D0771F881F991F09C033E001C034E0660FE9
S11318E0771F881F991F3150D1F7620F711D811D19
S11318F0911D08950F931F93CF93DF938C01C8011B
S11319000E942E0FEC0197FD08C00E94F40E892B53
S1131910B1F7B801CE010E94A80FCE01DF91CF919B
S11319201F910F9108958F929F92AF92BF92EF9261
S1131930FF920F931F93CF93DF938C01D62F7A01DD
S1131940B22E0E942E0F9C0133272B32310531F029
S11319502D32310561F48B2D8068B82ED15011F4ED
S113196080E068C0C8010E942E0F97FDF9CFCB2DEF
S1131970CD7F2B2D207309F58033F9F4AA24AA9482
S1131980AD0E09F443C0C8010E942E0F97FD3EC05E
S11319909C012F7D33272835310549F4C264D25088
S11319A0A9F1C8010E942E0F97FF07C02FC0B6FEF1
S11319B002C0C26001C0C261DA2D812C912C540195
S11319C020ED280F283080F0C4FF04C0B8010E9425
S11319D0A80F19C02A3040F0C6FFF8CF2F7D3FEE84
S11319E0320F363098F727504C2FC501B4010E94AE
S11319F0530C4B015C01C260D15059F0C8010E94E4
S1131A002E0F97FFDDCFC1FD04C0AACF812C912CEE
S1131A105401C7FF08C0B094A09490948094811C92
S1131A20911CA11CB11C2C2FB501A401C7010E945B
S1131A30470C81E0DF91CF911F910F91FF90EF90C0
S1131A40BF90AF909F908F900895A0E2B0E0EBE23A
S1131A50FDE00C9457105C01962E7A01F9018E0179
S1131A600F5F1F4F680180E2D8011D928A95E9F744
S1131A70D50113968C9080E090E0612C712C30E0BD
S1131A8061E070E083FC259183FE21918F01522E49
S1131A90211103C080E090E092C02E3511F400972C
S1131AA051F1432F50E0481759073CF42D3559F1B3
S1131AB02D3219F4772009F103C0772009F46AC0A4
S1131AC0452D469546954695D601A40FB11D452D45
S1131AD047708B0102C0000F111F4A95E2F7A8015D
S1131AE05C91452B4C93651459F0561410F453949F
S1131AF0E7CF5A94E5CF31E004C07724739401C052
S1131B00712C0196BFCF772019F08E8180628E836D
S1131B10311103C08824839417C0F6019E012F5D00
S1131B203F4F8081809581932E173F07D1F7F2CFE5
S1131B30E114F10429F0D7018C93F70131967F0168
S1131B409A94812C9920F9F0C5010E942E0F97FDDB
S1131B5018C0FC01FF2723E0F595E7952A95E1F7E6
S1131B60EC0DFD1D208130E0AC014770552702C00B
S1131B70359527954A95E2F720FDDACFB5010E9405
S1131B80A80F811087CFE114F10411F0D7011C9242
S1131B90C80115C0422F469546954695D601A40F17
S1131BA0B11D422F47708B0102C0000F111F4A95CF
S1131BB0E2F7A8015C91452B4C93622EA2CFA0962C
S1131BC0EFE00C947310A0E0B0E0E9EEFDE00C94BB
S1131BD057106C01EB015A01FC0117821682512C3B
S1131BE0F601E380FE01E3FC8591E3FE8191182F69
S1131BF0EF01882309F4EEC090E00E94F40E892BD3
S1131C0021F0C6010E947A0CEBCF153241F4FE019B
S1131C10E3FC1591E3FE1191EF01153281F4C60145
S1131C200E942E0F97FDD4C0412F50E09C01332712
S1131C3024173507A9F2B6010E94A80FCBC01A32A7
S1131C4039F4E3FC1591E3FE1191EF0101E001C0C9
S1131C5000E0F12C20ED210F2A3080F402606F2D7A
S1131C6070E080E090E040E20E94530CF62EFE010A
S1131C70E3FC1591E3FE1191EF01ECCF01FF03C0EA
S1131C80F11003C0A7C0FF24FA94183619F01C36CB
S1131C9051F010C0FE01E3FC1591E3FE1191EF0138
S1131CA0183641F408600460FE01E3FC1591E3FE7C
S1131CB01191EF01112309F48DC0612F70E08AE7BF
S1131CC090E00E94FD0E892B09F484C000FD07C03A
S1131CD0F50180809180C50102965C0102C0812CCF
S1131CE0912C1E3651F4F6014681578160E070E074
S1131CF0202FC4010E94470C73CF1336A9F401FDB1
S1131D0002C0FF24F394C6010E942E0F97FD60C009
S1131D108114910429F0F4018083C40101964C01DB
S1131D20FA94F110F0CF50C01B3559F49E01A40170
S1131D306F2DC6010E94250DEC01892B09F044C0CA
S1131D403EC0C6010E947A0C97FD42C01F3661F165
S1131D5028F4143639F1193651F128C0133771F0CB
S1131D60153701F123C08114910429F0F401608234
S1131D70C40101964C01FA94FF2071F0C6010E943F
S1131D802E0F3C0197FD08C00E94F40E892B59F3D5
S1131D90B601C3010E94A80F81149104A9F0F401B3
S1131DA0108212C0006203C0006101C00064202FD1
S1131DB0A4016F2DC6010E94930C811105C0F60188
S1131DC08381807329F406C000FD0ACF539408CFA1
S1131DD0552019F0852D90E002C08FEF9FEFCDB70D
S1131DE0DEB7EFE00C94731091110C941F10803245
S1131DF019F089508550C8F70895FC01059006161E
S1131E0021F00020D9F7C00108953197CF0108953A
S1131E10FC010590615070400110D8F780959095B1
S1131E208E0F9F1F0895FC016150704001900110B6
S1131E30D8F7809590958E0F9F1F0895DC01FC01C3
S1131E40672F71917723E1F7329704C07C916D93EA
S1131E5070836291AE17BF07C8F30895CF93DF93E1
S1131E60EC012B8120FF33C026FF0AC02F7B2B837C
S1131E708E819F8101969F838E838A8190E029C001
S1131E8022FF0FC0E881F9818081082E000C990B94
S1131E90009719F420622B831AC03196F983E883E2
S1131EA00EC0EA85FB85099597FF09C02B81019631
S1131EB011F080E201C080E1822B8B8308C02E8167
S1131EC03F812F5F3F4F3F832E83992702C08FEFBF
S1131ED09FEFDF91CF9108950F931F93CF93DF93DB
S1131EE0FB01238121FD03C08FEF9FEF2CC022FF54
S1131EF016C046815781248135814217530744F423
S1131F00A081B1819D012F5F3F4F318320838C934A
S1131F10268137812F5F3F4F3783268314C08B017F
S1131F20EC01FB010084F185E02D0995892BE1F694
S1131F30D80116968D919C911797019617969C93AC
S1131F408E931697CE01DF91CF911F910F91089533
S1131F50FB01238120FF12C026FD10C08F3F3FEFFD
S1131F60930761F082832F7D206423832681378148
S1131F702150310937832683992708958FEF9FEFE6
S1131F800895FA01AA27283051F1203181F1E8940B
S1131F906F936E7F6E5F7F4F8F4F9F4FAF4FB1E058
S1131FA03ED0B4E03CD0670F781F891F9A1FA11D53
S1131FB0680F791F8A1F911DA11D6A0F711D811D54
S1131FC0911DA11D20D009F468943F912AE0269F19
S1131FD011243019305D3193DEF6CF010895462F78
S1131FE04770405D4193B3E00FD0C9F7F6CF462F59
S1131FF04F70405D4A3318F0495D31FD40524193C2
S113200002D0A9F7EACFB4E0A6959795879577957E
S11320106795BA95C9F700976105710508959B0105
S1132020AC010A2E06945795479537952795BA958E
S1132030C9F7620F731F841F951FA01D0895992768
S113204088270895052E97FB1EF400940E943910EA
S113205057FD07D00E948B1007FC03D04EF40C945C
S1132060391050954095309521953F4F4F4F5F4F14
S1132070089590958095709561957F4F8F4F9F4FF0
S113208008950E94AD10A59F900DB49F900DA49F3C
S1132090800D911D11240895B7FF0C9441100E94E6
S11320A04110821B930B08952F923F924F925F929F
S11320B06F927F928F929F92AF92BF92CF92DF9254
S11320C0EF92FF920F931F93CF93DF93CDB7DEB7B9
S11320D0CA1BDB0B0FB6F894DEBF0FBECDBF09944D
S11320E02A88398848885F846E847D848C849B84A4
S11320F0AA84B984C884DF80EE80FD800C811B81B2
S1132100AA81B981CE0FD11D0FB6F894DEBF0FBEE0
S1132110CDBFED010895A1E21A2EAA1BBB1BFD0140
S11321200DC0AA1FBB1FEE1FFF1FA217B307E407B2
S1132130F50720F0A21BB30BE40BF50B661F771F0A
S1132140881F991F1A9469F76095709580959095EA
S11321509B01AC01BD01CF010895A29FB001B39FC3
S1132160C001A39F700D811D1124911DB29F700D9C
S10F2170811D1124911D0895F894FFCFE7
S113217C0100000050004D37365248563338464D56
S113218C31494D385755003256384B4B3132454A4C
S113219C3946543131445700504D47554347334227
S11321AC3051434C5A3443410063616E74746F75FF
S11321BC6368746869730050726574747920466C32
S11321CC7920666F7220612057692D4669000000E2
S11321DC0001000000000000730700000000000272
S11321EC000000006907000000000A257300474541
S11321FC542068747470733A2F2F6170692E74684C
S113220C696E67737065616B2E636F6D2F6170708F
S113221C732F7468696E67687474702F73656E6459
S113222C5F726571756573743F6170695F6B657915
S113223C3D0041540D004F4B0041542B4349505326
S113224C544152543D302C22544350222C22617060
S113225C692E7468696E67737065616B2E636F6D3C
S113226C222C25640D0A0041542B43495053454EEE
S113227C443D302C25640D0A0025730A48545450EF
S113228C2F312E3120486F73743A206170692E748B
S113229C68696E67737065616B2E636F6D0D0A00F0
S11322AC434C4F53454400446174612073656E7410
S11322BC0041542B434950434C4F53453D300D0082
S11322CC41542B43495053544152543D312C2254C4
S11322DC4350222C226170692E7468696E67737086
S11322EC65616B2E636F6D222C25640D0A004154BD
S11322FC2B43495053454E443D312C25640D0A0063
S113230C7461736B005461736B3A20222573220A37
S113231C0041542B43494653520D0041542B525304
S113232C540D0041542B43574A41503D22257322EE
S113233C2C222573220D0A0041542B43574D4F4434
S113234C453D310D0041542B4349504D55583D31B9
S113235C0D004745542068747470733A2F2F6170C4
S113236C692E7468696E67737065616B2E636F6D2B
S113237C2F617070732F7468696E677477656574F8
S113238C2F312F73746174757365732F7570646159
S113239C74653F6170695F6B65793D002673746188
S11323AC7475733D0054776565742073656E7400A1
S11323BC41542B434950434C4F53453D310D00413F
S11323CC6C736F2C2049276D2073656C662D6177B7
S11323DC6172652E2049443A0054616B696E672022
S11323EC6F7665722074686520776F726C642069EF
S11323FC6E20332E2E322E2E312E2E2049443A208E
S113240C00446561746820697320746865206B6589
S113241C7920746F20796F75722073616C76617496
S113242C696F6E2E2049443A004920616D206E6F0D
S113243C7420746865206D6F6E7374657220796F87
S113244C75207468696E6B204920616D2C204920BD
S113245C616D20746865206D6F6E7374657220797C
S113246C6F7520666F72636564206D6520746F20D0
S113247C62652E2049443A005765206D75737420AB
S113248C636C65616E7365207468697320776F7211
S113249C6C6420696E206F7264657220746F207294
S11324AC656761696E2069747320707572697479DB
S11324BC2E2049443A00446F6E2774206C6F6F6B66
S11324CC206174206D652C2049276D206869646532
S11324DC6F75732E2049443A004D55484148414884
S11324EC4148414148414841482E2049443A004919
S11324FC742068757274732E2E69742068757274E6
S113250C7320736F206D7563682E20504C454153B6
S113251C4520454E4420544849532E2049443A0002
S113252C4B6E6F636B206B6E6F636B2E2E2E205471
S113253C68657265206973206E6F206A6F6B652EF7
S113254C2049443A006F62737461636C655F636F16
S113255C757273650073706565640074696D655F8D
S113256C74726176656C65640075705F74696D6511
S113257C006D6F746F725F746573740069646C655D
S113258C006261636B7761726400666F727761726B
S113259C64006C65667400726967687400736C6FB0
S11325AC775F6D6F646500666173745F6D6F6465EE
S10525BC000019
S9030000FC
